{
  "contractName": "Committee",
  "abi": [
    {
      "inputs": [],
      "stateMutability": "nonpayable",
      "type": "constructor"
    },
    {
      "anonymous": false,
      "inputs": [
        {
          "indexed": false,
          "internalType": "address payable",
          "name": "Winner",
          "type": "address"
        },
        {
          "indexed": false,
          "internalType": "uint256",
          "name": "OnTime",
          "type": "uint256"
        },
        {
          "indexed": false,
          "internalType": "uint256",
          "name": "RewardCounter",
          "type": "uint256"
        }
      ],
      "name": "NextRoundStart",
      "type": "event"
    },
    {
      "inputs": [],
      "name": "ForSecurityPurpose",
      "outputs": [],
      "stateMutability": "payable",
      "type": "function",
      "payable": true
    },
    {
      "inputs": [],
      "name": "ViewAmount",
      "outputs": [
        {
          "internalType": "uint256",
          "name": "",
          "type": "uint256"
        }
      ],
      "stateMutability": "view",
      "type": "function",
      "constant": true
    },
    {
      "inputs": [
        {
          "internalType": "address payable",
          "name": "addressOfYours",
          "type": "address"
        }
      ],
      "name": "Participate",
      "outputs": [],
      "stateMutability": "nonpayable",
      "type": "function"
    },
    {
      "inputs": [],
      "name": "getTimeLeftForNextRound",
      "outputs": [
        {
          "internalType": "uint256",
          "name": "",
          "type": "uint256"
        }
      ],
      "stateMutability": "view",
      "type": "function",
      "constant": true
    },
    {
      "inputs": [],
      "name": "transferReward",
      "outputs": [],
      "stateMutability": "nonpayable",
      "type": "function"
    },
    {
      "inputs": [],
      "name": "ApproveForNextRound",
      "outputs": [],
      "stateMutability": "nonpayable",
      "type": "function"
    },
    {
      "inputs": [],
      "name": "ReturnTheSecurityMoney",
      "outputs": [
        {
          "internalType": "bool",
          "name": "",
          "type": "bool"
        }
      ],
      "stateMutability": "payable",
      "type": "function",
      "payable": true
    }
  ],
  "bytecode": "0x6080604052306000806101000a81548173ffffffffffffffffffffffffffffffffffffffff021916908373ffffffffffffffffffffffffffffffffffffffff1602179055506000600360006101000a81548161ffff021916908361ffff16021790555062278d00600555600a6007556000600860006101000a81548161ffff021916908361ffff1602179055506000600860026101000a81548161ffff021916908361ffff160217905550600280546100b89190610171565b600955600160009054906101000a900473ffffffffffffffffffffffffffffffffffffffff16600a60006101000a81548173ffffffffffffffffffffffffffffffffffffffff021916908373ffffffffffffffffffffffffffffffffffffffff16021790555034801561012a57600080fd5b5033600160006101000a81548173ffffffffffffffffffffffffffffffffffffffff021916908373ffffffffffffffffffffffffffffffffffffffff160217905550610204565b600061017c826101cb565b9150610187836101cb565b9250817fffffffffffffffffffffffffffffffffffffffffffffffffffffffffffffffff04831182151516156101c0576101bf6101d5565b5b828202905092915050565b6000819050919050565b7f4e487b7100000000000000000000000000000000000000000000000000000000600052601160045260246000fd5b611286806102136000396000f3fe6080604052600436106100705760003560e01c8063992c18491161004e578063992c1849146100e0578063ab6e14e3146100ea578063b70b677e14610101578063d1e659af1461011f57610070565b8063359fb633146100755780634a85b5f41461008c5780636b61d3db146100b5575b600080fd5b34801561008157600080fd5b5061008a61014a565b005b34801561009857600080fd5b506100b360048036038101906100ae9190610e28565b61049b565b005b3480156100c157600080fd5b506100ca6107ba565b6040516100d7919061106f565b60405180910390f35b6100e8610814565b005b3480156100f657600080fd5b506100ff610aca565b005b610109610c69565b6040516101169190611014565b60405180910390f35b34801561012b57600080fd5b50610134610ddf565b604051610141919061106f565b60405180910390f35b60055442111561018f576040517f08c379a00000000000000000000000000000000000000000000000000000000081526004016101869061102f565b60405180910390fd5b6009600860009054906101000a900461ffff1661ffff1610156101b157600080fd5b60005b600b80549050811161049857600660009054906101000a900473ffffffffffffffffffffffffffffffffffffffff16600b828154811061021d577f4e487b7100000000000000000000000000000000000000000000000000000000600052603260045260246000fd5b9060005260206000200160006101000a81548173ffffffffffffffffffffffffffffffffffffffff021916908373ffffffffffffffffffffffffffffffffffffffff160217905550600a60009054906101000a900473ffffffffffffffffffffffffffffffffffffffff1673ffffffffffffffffffffffffffffffffffffffff1663a9059cbb600660009054906101000a900473ffffffffffffffffffffffffffffffffffffffff1660008054906101000a900473ffffffffffffffffffffffffffffffffffffffff1673ffffffffffffffffffffffffffffffffffffffff16316040518363ffffffff1660e01b815260040161031b929190610f7d565b602060405180830381600087803b15801561033557600080fd5b505af1158015610349573d6000803e3d6000fd5b505050506040513d601f19601f8201168201806040525081019061036d9190610e7a565b507fa6c716bc7608c090bbb9e5e3221eff1f6196abf7b59f7209e4f5a68483c566c1600660009054906101000a900473ffffffffffffffffffffffffffffffffffffffff1642600860009054906101000a900461ffff166040516103d393929190610fa6565b60405180910390a16008600081819054906101000a900461ffff16809291906103fb9061117f565b91906101000a81548161ffff021916908361ffff16021790555050600b8181548110610450577f4e487b7100000000000000000000000000000000000000000000000000000000600052603260045260246000fd5b9060005260206000200160006101000a81549073ffffffffffffffffffffffffffffffffffffffff0219169055610485610aca565b8080610490906111aa565b9150506101b4565b50565b600254600454146104ab57600080fd5b60011515600e60003373ffffffffffffffffffffffffffffffffffffffff1673ffffffffffffffffffffffffffffffffffffffff16815260200190815260200160002060009054906101000a900460ff1615151461053e576040517f08c379a00000000000000000000000000000000000000000000000000000000081526004016105359061104f565b60405180910390fd5b60011515600f60003373ffffffffffffffffffffffffffffffffffffffff1673ffffffffffffffffffffffffffffffffffffffff16815260200190815260200160002060009054906101000a900460ff1615151461059b57600080fd5b6009600c8054905011156105ae57600080fd5b600a60009054906101000a900473ffffffffffffffffffffffffffffffffffffffff1673ffffffffffffffffffffffffffffffffffffffff1663a9059cbb60008054906101000a900473ffffffffffffffffffffffffffffffffffffffff166002546040518363ffffffff1660e01b815260040161062d929190610f7d565b602060405180830381600087803b15801561064757600080fd5b505af115801561065b573d6000803e3d6000fd5b505050506040513d601f19601f8201168201806040525081019061067f9190610e7a565b50600c60405180606001604052808373ffffffffffffffffffffffffffffffffffffffff168152602001600454815260200160011515815250908060018154018082558091505060019003906000526020600020906003020160009091909190915060008201518160000160006101000a81548173ffffffffffffffffffffffffffffffffffffffff021916908373ffffffffffffffffffffffffffffffffffffffff1602179055506020820151816001015560408201518160020160006101000a81548160ff0219169083151502179055505050600b819080600181540180825580915050600190039060005260206000200160009091909190916101000a81548173ffffffffffffffffffffffffffffffffffffffff021916908373ffffffffffffffffffffffffffffffffffffffff16021790555050565b6000600554421115610801576040517f08c379a00000000000000000000000000000000000000000000000000000000081526004016107f89061102f565b60405180910390fd5b4260055461080f919061109b565b905090565b6009600d80549050111561082757600080fd5b60011515600e60003373ffffffffffffffffffffffffffffffffffffffff1673ffffffffffffffffffffffffffffffffffffffff16815260200190815260200160002060009054906101000a900460ff161515146108ba576040517f08c379a00000000000000000000000000000000000000000000000000000000081526004016108b19061104f565b60405180910390fd5b600a60009054906101000a900473ffffffffffffffffffffffffffffffffffffffff1673ffffffffffffffffffffffffffffffffffffffff166323b872dd33600a60009054906101000a900473ffffffffffffffffffffffffffffffffffffffff1673ffffffffffffffffffffffffffffffffffffffff166387e9c56e6040518163ffffffff1660e01b815260040160206040518083038186803b15801561096157600080fd5b505afa158015610975573d6000803e3d6000fd5b505050506040513d601f19601f820116820180604052508101906109999190610e51565b6009546040518463ffffffff1660e01b81526004016109ba93929190610fdd565b602060405180830381600087803b1580156109d457600080fd5b505af11580156109e8573d6000803e3d6000fd5b505050506040513d601f19601f82011682018060405250810190610a0c9190610e7a565b506001600f60003373ffffffffffffffffffffffffffffffffffffffff1673ffffffffffffffffffffffffffffffffffffffff16815260200190815260200160002060006101000a81548160ff021916908315150217905550600d339080600181540180825580915050600190039060005260206000200160009091909190916101000a81548173ffffffffffffffffffffffffffffffffffffffff021916908373ffffffffffffffffffffffffffffffffffffffff160217905550565b600554421115610b0f576040517f08c379a0000000000000000000000000000000000000000000000000000000008152600401610b069061102f565b60405180910390fd5b60088060029054906101000a900461ffff1661ffff161015610b3057600080fd5b60011515600e60003373ffffffffffffffffffffffffffffffffffffffff1673ffffffffffffffffffffffffffffffffffffffff16815260200190815260200160002060009054906101000a900460ff16151514610b8d57600080fd5b600a60009054906101000a900473ffffffffffffffffffffffffffffffffffffffff1673ffffffffffffffffffffffffffffffffffffffff1663a9059cbb60008054906101000a900473ffffffffffffffffffffffffffffffffffffffff166002546040518363ffffffff1660e01b8152600401610c0c929190610f7d565b602060405180830381600087803b158015610c2657600080fd5b505af1158015610c3a573d6000803e3d6000fd5b505050506040513d601f19601f82011682018060405250810190610c5e9190610e7a565b50610c6761014a565b565b600060088060029054906101000a900461ffff1661ffff16148015610ca257506009600860009054906101000a900461ffff1661ffff16145b610cab57600080fd5b6000600d80549050811015610dda57600a60009054906101000a900473ffffffffffffffffffffffffffffffffffffffff1673ffffffffffffffffffffffffffffffffffffffff1663a9059cbb600d8381548110610d32577f4e487b7100000000000000000000000000000000000000000000000000000000600052603260045260246000fd5b9060005260206000200160009054906101000a900473ffffffffffffffffffffffffffffffffffffffff166009546040518363ffffffff1660e01b8152600401610d7d929190610f7d565b602060405180830381600087803b158015610d9757600080fd5b505af1158015610dab573d6000803e3d6000fd5b505050506040513d601f19601f82011682018060405250810190610dcf9190610e7a565b506001915050610ddc565b505b90565b6000600254905090565b600081359050610df881611222565b92915050565b600081519050610e0d81611222565b92915050565b600081519050610e2281611239565b92915050565b600060208284031215610e3a57600080fd5b6000610e4884828501610de9565b91505092915050565b600060208284031215610e6357600080fd5b6000610e7184828501610dfe565b91505092915050565b600060208284031215610e8c57600080fd5b6000610e9a84828501610e13565b91505092915050565b610eac81611137565b82525050565b610ebb816110e1565b82525050565b610eca816110cf565b82525050565b610ed9816110f3565b82525050565b6000610eec60108361108a565b91507f4e65787420526f756e64205374617274000000000000000000000000000000006000830152602082019050919050565b6000610f2c60148361108a565b91507f4e6f742061636365737369626c6520616761696e0000000000000000000000006000830152602082019050919050565b610f688161116d565b82525050565b610f778161112d565b82525050565b6000604082019050610f926000830185610ea3565b610f9f6020830184610f6e565b9392505050565b6000606082019050610fbb6000830186610eb2565b610fc86020830185610f6e565b610fd56040830184610f5f565b949350505050565b6000606082019050610ff26000830186610ec1565b610fff6020830185610ea3565b61100c6040830184610f6e565b949350505050565b60006020820190506110296000830184610ed0565b92915050565b6000602082019050818103600083015261104881610edf565b9050919050565b6000602082019050818103600083015261106881610f1f565b9050919050565b60006020820190506110846000830184610f6e565b92915050565b600082825260208201905092915050565b60006110a68261112d565b91506110b18361112d565b9250828210156110c4576110c36111f3565b5b828203905092915050565b60006110da8261110d565b9050919050565b60006110ec8261110d565b9050919050565b60008115159050919050565b600061ffff82169050919050565b600073ffffffffffffffffffffffffffffffffffffffff82169050919050565b6000819050919050565b600061114282611149565b9050919050565b60006111548261115b565b9050919050565b60006111668261110d565b9050919050565b6000611178826110ff565b9050919050565b600061118a826110ff565b915061ffff82141561119f5761119e6111f3565b5b600182019050919050565b60006111b58261112d565b91507fffffffffffffffffffffffffffffffffffffffffffffffffffffffffffffffff8214156111e8576111e76111f3565b5b600182019050919050565b7f4e487b7100000000000000000000000000000000000000000000000000000000600052601160045260246000fd5b61122b816110e1565b811461123657600080fd5b50565b611242816110f3565b811461124d57600080fd5b5056fea26469706673582212204a23126db0a51cd8a50e2b37b7814543abb4c85804b2ab627527ca2805f748a064736f6c63430008000033",
  "immutableReferences": {},
  "source": "pragma solidity >=0.8.0;\r\nimport \"./ERC20db.sol\";\r\n\r\ncontract Committee{\r\n    address payable ContractAddress = payable (address(this));\r\n    address payable owner;\r\n    uint AmountRequired;\r\n    uint16 CounterCheck = 0;\r\n    uint amountToBePaid;\r\n    uint Next = 30 days;\r\n    address payable Member;\r\n    uint TotalMembers = 10;\r\n    uint16 RewardCounter = 0;\r\n    uint16 NextRoundCounter =0;\r\n    address payable NextMembers;\r\n    uint SecurityAmount = AmountRequired *2;\r\n   \r\n  \r\n    \r\n    \r\n     constructor(){\r\n        owner = payable(msg.sender);\r\n    }\r\n   \r\n  ERC20Basic Erc20 =  ERC20Basic(owner);\r\n  \r\n       //struct for storing the Owner's information\r\n    struct committeeOwner{\r\n        address addressOfOwner;\r\n        uint amountOwned;\r\n       \r\n    }\r\n    \r\n      //struct for storing the data of the members\r\n    struct MembersData{\r\n        address AddressofMembers;\r\n        uint AmountReceived;\r\n        bool check;\r\n    }\r\n    \r\n      //array for MembersAddresses\r\n    address payable[] MembersAddresses;\r\n        \r\n    //Struct for MembersDatas\r\n    MembersData[] MemberStructArray;\r\n    \r\n    //array for SecurityAmount giving\r\n    address payable[] SecurityGiven;\r\n    \r\n    //modifier for function participate\r\n    modifier AmountCheck{\r\n        require(amountToBePaid == AmountRequired);\r\n        _;\r\n    }\r\n    \r\n    //modifier for function timer\r\n    modifier TimeOver{\r\n        require(block.timestamp <= Next, \"Next Round Start\");\r\n        _;\r\n    }\r\n    \r\n    \r\n    event NextRoundStart(\r\n        address payable Winner,\r\n        uint OnTime,\r\n        uint RewardCounter\r\n        );\r\n        \r\n        \r\n        \r\n      //mapping for checking if the address is present once or not\r\n   mapping(address => bool) OnlyOnce;\r\n   \r\n   //mapping for security\r\n   mapping(address => bool) Security;\r\n   \r\n   \r\n   function ForSecurityPurpose() public payable {\r\n       require(SecurityGiven.length <=  9);\r\n        \r\n              \r\n        //checking if the address is present\r\n        require(OnlyOnce[msg.sender]==true, \"Not accessible again\");\r\n         \r\n       Erc20.transferFrom(msg.sender, Erc20.SecurityAddress(), SecurityAmount);\r\n       Security[msg.sender] = true;\r\n       SecurityGiven.push(payable(msg.sender));\r\n   }\r\n \r\n   \r\n    //function for starting committee\r\n    function StartingCommittee(uint _amount ) private {\r\n        \r\n        AmountRequired = _amount;\r\n        require(_amount>0);\r\n        \r\n        //passing the parameters to the \"committeeOwner\" sruct\r\n        committeeOwner(owner, _amount);\r\n      \r\n       //transferring the tokens to the contract address\r\n       Erc20.transfer(ContractAddress, _amount);\r\n       \r\n        //calling function ViewAmount\r\n        ViewAmount();\r\n            \r\n    }\r\n    \r\n     //function for viewing Amount Required to participate\r\n    function ViewAmount() public view returns(uint){\r\n        return AmountRequired;\r\n    }\r\n    \r\n    //function for Participating\r\n    function Participate(address payable addressOfYours) AmountCheck public {\r\n        \r\n        \r\n        //checking if the address is present\r\n         require(OnlyOnce[msg.sender]==true, \"Not accessible again\");\r\n         \r\n         \r\n         //checking if security fee has been paid by the user \r\n        require(Security[msg.sender]==true);\r\n         \r\n        //checking the numbers of Array \r\n        require(MemberStructArray.length<=9);\r\n        \r\n        //transfering the tokens to the ContractAddress\r\n        Erc20.transfer(ContractAddress, AmountRequired);\r\n        \r\n        //Adding the data in the Struct Array\r\n       MemberStructArray.push(MembersData(addressOfYours,amountToBePaid,true));\r\n\r\n       \r\n        //Adding address in the MembersData Array\r\n        MembersAddresses.push(addressOfYours);\r\n        \r\n    } \r\n    \r\n       //function for returning timeleft\r\n    function getTimeLeftForNextRound() public TimeOver view returns(uint){\r\n        return Next - block.timestamp;\r\n    }\r\n    \r\n        //function for transferring Reward\r\n    function transferReward() TimeOver public {\r\n        \r\n        require(RewardCounter >= 9);\r\n        for( uint r = 0; r<=MembersAddresses.length; r++){\r\n            MembersAddresses[r] = Member;\r\n            Erc20.transfer(Member, ContractAddress.balance);\r\n            \r\n            emit NextRoundStart(Member, block.timestamp, RewardCounter);\r\n            RewardCounter++;\r\n            delete MembersAddresses[r];\r\n            ApproveForNextRound();\r\n            \r\n        }\r\n    }\r\n        \r\n    \r\n    function ApproveForNextRound() TimeOver public{\r\n      require (NextRoundCounter >= 8);\r\n      require (OnlyOnce[msg.sender] == true);\r\n        //transfering the tokens to the ContractAddress\r\n        Erc20.transfer(ContractAddress, AmountRequired);\r\n        transferReward();\r\n        \r\n    }\r\n    \r\n    function ReturnTheSecurityMoney() public payable returns(bool){\r\n        require( NextRoundCounter == 8 && RewardCounter ==9);\r\n        for(uint s = 0; s < SecurityGiven.length ; s++){\r\n            \r\n            Erc20.transfer(SecurityGiven[s], SecurityAmount);\r\n            return true;\r\n        }\r\n    }\r\n}\r\n    \r\n\r\n    ",
  "sourcePath": "D:\\Committee\\contracts\\Committee.sol",
  "compiler": {
    "name": "solc",
    "version": "0.8.0+commit.c7dfd78e.Emscripten.clang"
  },
  "schemaVersion": "3.4.3",
  "updatedAt": "2021-10-13T13:57:27.597Z",
  "networkType": "ethereum",
  "devdoc": {
    "kind": "dev",
    "methods": {},
    "version": 1
  },
  "userdoc": {
    "kind": "user",
    "methods": {},
    "version": 1
  }
}